{
  "contractName": "VikeToken",
  "abi": [
    {
      "inputs": [],
      "payable": false,
      "stateMutability": "nonpayable",
      "type": "constructor"
    },
    {
      "constant": true,
      "inputs": [],
      "name": "totalSupply",
      "outputs": [
        {
          "internalType": "uint256",
          "name": "",
          "type": "uint256"
        }
      ],
      "payable": false,
      "stateMutability": "view",
      "type": "function"
    }
  ],
  "bytecode": "0x6080604052348015600f57600080fd5b50620f42406000819055506084806100286000396000f3fe6080604052348015600f57600080fd5b506004361060285760003560e01c806318160ddd14602d575b600080fd5b60336049565b6040518082815260200191505060405180910390f35b6000548156fea265627a7a723158204ab1d461afe18e2324b3d91892d955ec979c09a79980077b6517220cb9087f3b64736f6c63430005100032",
  "source": "pragma solidity >=0.4.22 <0.8.0;\r\n\r\ncontract VikeToken {\r\n    // NEED to show how many tokens will ever exist for VikeToken\r\n    // constructor: ran every time smart contract is deployed... sets value of tokens created (1 million... arbitrary)\r\n    // set the total number of tokens\r\n    // read the total number of tokens\r\n    uint256 public totalSupply; // state variable to write the data to the blockchain that 1 million tokens were initially set\r\n    constructor() public {\r\n        totalSupply = 1000000; \r\n    }\r\n}",
  "sourcePath": "C:/Users/straw/OneDrive/Desktop/rose/git repo/token_sale/token_sale/contracts/VikeToken.sol",
  "compiler": {
    "name": "solc",
    "version": "0.5.16+commit.9c3226ce.Emscripten.clang"
  },
  "schemaVersion": "3.2.3",
  "updatedAt": "2020-12-08T22:40:41.249Z",
  "networkType": "ethereum",
  "devdoc": {
    "methods": {}
  },
  "userdoc": {
    "methods": {}
  }
}